{
	"hello-world.sol": {
		"Helloworld": {
			"abi": [
				{
					"inputs": [
						{
							"internalType": "uint64",
							"name": "operator",
							"type": "uint64"
						}
					],
					"name": "addNumber",
					"outputs": [
						{
							"internalType": "uint64",
							"name": "result",
							"type": "uint64"
						}
					],
					"stateMutability": "pure",
					"type": "function"
				}
			],
			"devdoc": {
				"kind": "dev",
				"methods": {},
				"version": 1
			},
			"evm": {
				"assembly": "    /* \"hello-world.sol\":61:253  contract Helloworld{... */\n  mstore(0x40, 0x80)\n    /* \"hello-world.sol\":103:105  64 */\n  0x40\n    /* \"hello-world.sol\":87:105  uint64 number = 64 */\n  0x00\n  dup1\n  0x0100\n  exp\n  dup2\n  sload\n  dup2\n  0xffffffffffffffff\n  mul\n  not\n  and\n  swap1\n  dup4\n  0xffffffffffffffff\n  and\n  mul\n  or\n  swap1\n  sstore\n  pop\n    /* \"hello-world.sol\":61:253  contract Helloworld{... */\n  callvalue\n  dup1\n  iszero\n  tag_1\n  jumpi\n  0x00\n  dup1\n  revert\ntag_1:\n  pop\n  dataSize(sub_0)\n  dup1\n  dataOffset(sub_0)\n  0x00\n  codecopy\n  0x00\n  return\nstop\n\nsub_0: assembly {\n        /* \"hello-world.sol\":61:253  contract Helloworld{... */\n      mstore(0x40, 0x80)\n      callvalue\n      dup1\n      iszero\n      tag_1\n      jumpi\n      0x00\n      dup1\n      revert\n    tag_1:\n      pop\n      jumpi(tag_2, lt(calldatasize, 0x04))\n      shr(0xe0, calldataload(0x00))\n      dup1\n      0x97996dce\n      eq\n      tag_3\n      jumpi\n    tag_2:\n      0x00\n      dup1\n      revert\n        /* \"hello-world.sol\":114:250  function addNumber( uint64 operator)  public  pure  returns(uint64 result) {... */\n    tag_3:\n      tag_4\n      0x04\n      dup1\n      calldatasize\n      sub\n      dup2\n      add\n      swap1\n      tag_5\n      swap2\n      swap1\n      tag_6\n      jump\t// in\n    tag_5:\n      tag_7\n      jump\t// in\n    tag_4:\n      mload(0x40)\n      tag_8\n      swap2\n      swap1\n      tag_9\n      jump\t// in\n    tag_8:\n      mload(0x40)\n      dup1\n      swap2\n      sub\n      swap1\n      return\n    tag_7:\n        /* \"hello-world.sol\":174:187  uint64 result */\n      0x00\n        /* \"hello-world.sol\":210:218  operator */\n      dup2\n        /* \"hello-world.sol\":200:218  result += operator */\n      dup2\n      tag_11\n      swap2\n      swap1\n      tag_12\n      jump\t// in\n    tag_11:\n      swap1\n      pop\n        /* \"hello-world.sol\":114:250  function addNumber( uint64 operator)  public  pure  returns(uint64 result) {... */\n      swap2\n      swap1\n      pop\n      jump\t// out\n        /* \"#utility.yul\":88:205   */\n    tag_14:\n        /* \"#utility.yul\":197:198   */\n      0x00\n        /* \"#utility.yul\":194:195   */\n      dup1\n        /* \"#utility.yul\":187:199   */\n      revert\n        /* \"#utility.yul\":334:435   */\n    tag_16:\n        /* \"#utility.yul\":370:377   */\n      0x00\n        /* \"#utility.yul\":410:428   */\n      0xffffffffffffffff\n        /* \"#utility.yul\":403:408   */\n      dup3\n        /* \"#utility.yul\":399:429   */\n      and\n        /* \"#utility.yul\":388:429   */\n      swap1\n      pop\n        /* \"#utility.yul\":334:435   */\n      swap2\n      swap1\n      pop\n      jump\t// out\n        /* \"#utility.yul\":441:561   */\n    tag_17:\n        /* \"#utility.yul\":513:536   */\n      tag_27\n        /* \"#utility.yul\":530:535   */\n      dup2\n        /* \"#utility.yul\":513:536   */\n      tag_16\n      jump\t// in\n    tag_27:\n        /* \"#utility.yul\":506:511   */\n      dup2\n        /* \"#utility.yul\":503:537   */\n      eq\n        /* \"#utility.yul\":493:555   */\n      tag_28\n      jumpi\n        /* \"#utility.yul\":551:552   */\n      0x00\n        /* \"#utility.yul\":548:549   */\n      dup1\n        /* \"#utility.yul\":541:553   */\n      revert\n        /* \"#utility.yul\":493:555   */\n    tag_28:\n        /* \"#utility.yul\":441:561   */\n      pop\n      jump\t// out\n        /* \"#utility.yul\":567:704   */\n    tag_18:\n        /* \"#utility.yul\":612:617   */\n      0x00\n        /* \"#utility.yul\":650:656   */\n      dup2\n        /* \"#utility.yul\":637:657   */\n      calldataload\n        /* \"#utility.yul\":628:657   */\n      swap1\n      pop\n        /* \"#utility.yul\":666:698   */\n      tag_30\n        /* \"#utility.yul\":692:697   */\n      dup2\n        /* \"#utility.yul\":666:698   */\n      tag_17\n      jump\t// in\n    tag_30:\n        /* \"#utility.yul\":567:704   */\n      swap3\n      swap2\n      pop\n      pop\n      jump\t// out\n        /* \"#utility.yul\":710:1037   */\n    tag_6:\n        /* \"#utility.yul\":768:774   */\n      0x00\n        /* \"#utility.yul\":817:819   */\n      0x20\n        /* \"#utility.yul\":805:814   */\n      dup3\n        /* \"#utility.yul\":796:803   */\n      dup5\n        /* \"#utility.yul\":792:815   */\n      sub\n        /* \"#utility.yul\":788:820   */\n      slt\n        /* \"#utility.yul\":785:904   */\n      iszero\n      tag_32\n      jumpi\n        /* \"#utility.yul\":823:902   */\n      tag_33\n      tag_14\n      jump\t// in\n    tag_33:\n        /* \"#utility.yul\":785:904   */\n    tag_32:\n        /* \"#utility.yul\":943:944   */\n      0x00\n        /* \"#utility.yul\":968:1020   */\n      tag_34\n        /* \"#utility.yul\":1012:1019   */\n      dup5\n        /* \"#utility.yul\":1003:1009   */\n      dup3\n        /* \"#utility.yul\":992:1001   */\n      dup6\n        /* \"#utility.yul\":988:1010   */\n      add\n        /* \"#utility.yul\":968:1020   */\n      tag_18\n      jump\t// in\n    tag_34:\n        /* \"#utility.yul\":958:1020   */\n      swap2\n      pop\n        /* \"#utility.yul\":914:1030   */\n      pop\n        /* \"#utility.yul\":710:1037   */\n      swap3\n      swap2\n      pop\n      pop\n      jump\t// out\n        /* \"#utility.yul\":1043:1158   */\n    tag_19:\n        /* \"#utility.yul\":1128:1151   */\n      tag_36\n        /* \"#utility.yul\":1145:1150   */\n      dup2\n        /* \"#utility.yul\":1128:1151   */\n      tag_16\n      jump\t// in\n    tag_36:\n        /* \"#utility.yul\":1123:1126   */\n      dup3\n        /* \"#utility.yul\":1116:1152   */\n      mstore\n        /* \"#utility.yul\":1043:1158   */\n      pop\n      pop\n      jump\t// out\n        /* \"#utility.yul\":1164:1382   */\n    tag_9:\n        /* \"#utility.yul\":1255:1259   */\n      0x00\n        /* \"#utility.yul\":1293:1295   */\n      0x20\n        /* \"#utility.yul\":1282:1291   */\n      dup3\n        /* \"#utility.yul\":1278:1296   */\n      add\n        /* \"#utility.yul\":1270:1296   */\n      swap1\n      pop\n        /* \"#utility.yul\":1306:1375   */\n      tag_38\n        /* \"#utility.yul\":1372:1373   */\n      0x00\n        /* \"#utility.yul\":1361:1370   */\n      dup4\n        /* \"#utility.yul\":1357:1374   */\n      add\n        /* \"#utility.yul\":1348:1354   */\n      dup5\n        /* \"#utility.yul\":1306:1375   */\n      tag_19\n      jump\t// in\n    tag_38:\n        /* \"#utility.yul\":1164:1382   */\n      swap3\n      swap2\n      pop\n      pop\n      jump\t// out\n        /* \"#utility.yul\":1388:1568   */\n    tag_20:\n        /* \"#utility.yul\":1436:1513   */\n      0x4e487b7100000000000000000000000000000000000000000000000000000000\n        /* \"#utility.yul\":1433:1434   */\n      0x00\n        /* \"#utility.yul\":1426:1514   */\n      mstore\n        /* \"#utility.yul\":1533:1537   */\n      0x11\n        /* \"#utility.yul\":1530:1531   */\n      0x04\n        /* \"#utility.yul\":1523:1538   */\n      mstore\n        /* \"#utility.yul\":1557:1561   */\n      0x24\n        /* \"#utility.yul\":1554:1555   */\n      0x00\n        /* \"#utility.yul\":1547:1562   */\n      revert\n        /* \"#utility.yul\":1574:1779   */\n    tag_12:\n        /* \"#utility.yul\":1613:1616   */\n      0x00\n        /* \"#utility.yul\":1632:1651   */\n      tag_41\n        /* \"#utility.yul\":1649:1650   */\n      dup3\n        /* \"#utility.yul\":1632:1651   */\n      tag_16\n      jump\t// in\n    tag_41:\n        /* \"#utility.yul\":1627:1651   */\n      swap2\n      pop\n        /* \"#utility.yul\":1665:1684   */\n      tag_42\n        /* \"#utility.yul\":1682:1683   */\n      dup4\n        /* \"#utility.yul\":1665:1684   */\n      tag_16\n      jump\t// in\n    tag_42:\n        /* \"#utility.yul\":1660:1684   */\n      swap3\n      pop\n        /* \"#utility.yul\":1707:1708   */\n      dup3\n        /* \"#utility.yul\":1704:1705   */\n      dup3\n        /* \"#utility.yul\":1700:1709   */\n      add\n        /* \"#utility.yul\":1693:1709   */\n      swap1\n      pop\n        /* \"#utility.yul\":1730:1748   */\n      0xffffffffffffffff\n        /* \"#utility.yul\":1725:1728   */\n      dup2\n        /* \"#utility.yul\":1722:1749   */\n      gt\n        /* \"#utility.yul\":1719:1772   */\n      iszero\n      tag_43\n      jumpi\n        /* \"#utility.yul\":1752:1770   */\n      tag_44\n      tag_20\n      jump\t// in\n    tag_44:\n        /* \"#utility.yul\":1719:1772   */\n    tag_43:\n        /* \"#utility.yul\":1574:1779   */\n      swap3\n      swap2\n      pop\n      pop\n      jump\t// out\n\n    auxdata: 0xa2646970667358221220b14790ca27f6804dbbfadcf3a643d0acbb58dc5e78e3e50125a4f4163653a6e464736f6c63430008170033\n}\n",
				"bytecode": {
					"linkReferences": {},
					"object": "608060405260405f806101000a81548167ffffffffffffffff021916908367ffffffffffffffff160217905550348015610037575f80fd5b506101a3806100455f395ff3fe608060405234801561000f575f80fd5b5060043610610029575f3560e01c806397996dce1461002d575b5f80fd5b610047600480360381019061004291906100b2565b61005d565b60405161005491906100ec565b60405180910390f35b5f818161006a9190610132565b9050919050565b5f80fd5b5f67ffffffffffffffff82169050919050565b61009181610075565b811461009b575f80fd5b50565b5f813590506100ac81610088565b92915050565b5f602082840312156100c7576100c6610071565b5b5f6100d48482850161009e565b91505092915050565b6100e681610075565b82525050565b5f6020820190506100ff5f8301846100dd565b92915050565b7f4e487b71000000000000000000000000000000000000000000000000000000005f52601160045260245ffd5b5f61013c82610075565b915061014783610075565b9250828201905067ffffffffffffffff81111561016757610166610105565b5b9291505056fea2646970667358221220b14790ca27f6804dbbfadcf3a643d0acbb58dc5e78e3e50125a4f4163653a6e464736f6c63430008170033",
					"opcodes": "PUSH1 0x80 PUSH1 0x40 MSTORE PUSH1 0x40 PUSH0 DUP1 PUSH2 0x100 EXP DUP2 SLOAD DUP2 PUSH8 0xFFFFFFFFFFFFFFFF MUL NOT AND SWAP1 DUP4 PUSH8 0xFFFFFFFFFFFFFFFF AND MUL OR SWAP1 SSTORE POP CALLVALUE DUP1 ISZERO PUSH2 0x37 JUMPI PUSH0 DUP1 REVERT JUMPDEST POP PUSH2 0x1A3 DUP1 PUSH2 0x45 PUSH0 CODECOPY PUSH0 RETURN INVALID PUSH1 0x80 PUSH1 0x40 MSTORE CALLVALUE DUP1 ISZERO PUSH2 0xF JUMPI PUSH0 DUP1 REVERT JUMPDEST POP PUSH1 0x4 CALLDATASIZE LT PUSH2 0x29 JUMPI PUSH0 CALLDATALOAD PUSH1 0xE0 SHR DUP1 PUSH4 0x97996DCE EQ PUSH2 0x2D JUMPI JUMPDEST PUSH0 DUP1 REVERT JUMPDEST PUSH2 0x47 PUSH1 0x4 DUP1 CALLDATASIZE SUB DUP2 ADD SWAP1 PUSH2 0x42 SWAP2 SWAP1 PUSH2 0xB2 JUMP JUMPDEST PUSH2 0x5D JUMP JUMPDEST PUSH1 0x40 MLOAD PUSH2 0x54 SWAP2 SWAP1 PUSH2 0xEC JUMP JUMPDEST PUSH1 0x40 MLOAD DUP1 SWAP2 SUB SWAP1 RETURN JUMPDEST PUSH0 DUP2 DUP2 PUSH2 0x6A SWAP2 SWAP1 PUSH2 0x132 JUMP JUMPDEST SWAP1 POP SWAP2 SWAP1 POP JUMP JUMPDEST PUSH0 DUP1 REVERT JUMPDEST PUSH0 PUSH8 0xFFFFFFFFFFFFFFFF DUP3 AND SWAP1 POP SWAP2 SWAP1 POP JUMP JUMPDEST PUSH2 0x91 DUP2 PUSH2 0x75 JUMP JUMPDEST DUP2 EQ PUSH2 0x9B JUMPI PUSH0 DUP1 REVERT JUMPDEST POP JUMP JUMPDEST PUSH0 DUP2 CALLDATALOAD SWAP1 POP PUSH2 0xAC DUP2 PUSH2 0x88 JUMP JUMPDEST SWAP3 SWAP2 POP POP JUMP JUMPDEST PUSH0 PUSH1 0x20 DUP3 DUP5 SUB SLT ISZERO PUSH2 0xC7 JUMPI PUSH2 0xC6 PUSH2 0x71 JUMP JUMPDEST JUMPDEST PUSH0 PUSH2 0xD4 DUP5 DUP3 DUP6 ADD PUSH2 0x9E JUMP JUMPDEST SWAP2 POP POP SWAP3 SWAP2 POP POP JUMP JUMPDEST PUSH2 0xE6 DUP2 PUSH2 0x75 JUMP JUMPDEST DUP3 MSTORE POP POP JUMP JUMPDEST PUSH0 PUSH1 0x20 DUP3 ADD SWAP1 POP PUSH2 0xFF PUSH0 DUP4 ADD DUP5 PUSH2 0xDD JUMP JUMPDEST SWAP3 SWAP2 POP POP JUMP JUMPDEST PUSH32 0x4E487B7100000000000000000000000000000000000000000000000000000000 PUSH0 MSTORE PUSH1 0x11 PUSH1 0x4 MSTORE PUSH1 0x24 PUSH0 REVERT JUMPDEST PUSH0 PUSH2 0x13C DUP3 PUSH2 0x75 JUMP JUMPDEST SWAP2 POP PUSH2 0x147 DUP4 PUSH2 0x75 JUMP JUMPDEST SWAP3 POP DUP3 DUP3 ADD SWAP1 POP PUSH8 0xFFFFFFFFFFFFFFFF DUP2 GT ISZERO PUSH2 0x167 JUMPI PUSH2 0x166 PUSH2 0x105 JUMP JUMPDEST JUMPDEST SWAP3 SWAP2 POP POP JUMP INVALID LOG2 PUSH5 0x6970667358 0x22 SLT KECCAK256 0xB1 SELFBALANCE SWAP1 0xCA 0x27 0xF6 DUP1 0x4D 0xBB STATICCALL 0xDC RETURN 0xA6 NUMBER 0xD0 0xAC 0xBB PC 0xDC 0x5E PUSH25 0xE3E50125A4F4163653A6E464736F6C63430008170033000000 "
				},
				"gasEstimates": {
					"creation": {
						"codeDepositCost": "83800",
						"executionCost": "24399",
						"totalCost": "108199"
					},
					"external": {
						"addNumber(uint64)": "infinite"
					}
				},
				"methodIdentifiers": {
					"addNumber(uint64)": "97996dce"
				}
			},
			"storageLayout": {
				"storage": [
					{
						"astId": 4,
						"contract": "hello-world.sol:Helloworld",
						"label": "number",
						"offset": 0,
						"slot": "0",
						"type": "t_uint64"
					}
				],
				"types": {
					"t_uint64": {
						"encoding": "inplace",
						"label": "uint64",
						"numberOfBytes": "8"
					}
				}
			},
			"userdoc": {
				"kind": "user",
				"methods": {},
				"version": 1
			}
		}
	}
}